{
  "_format": "hh-sol-artifact-1",
  "contractName": "TweetCity",
  "sourceName": "contracts/TweetCity.sol",
  "abi": [
    {
      "inputs": [],
      "stateMutability": "nonpayable",
      "type": "constructor"
    },
    {
      "inputs": [
        {
          "internalType": "address",
          "name": "target",
          "type": "address"
        }
      ],
      "name": "AddressEmptyCode",
      "type": "error"
    },
    {
      "inputs": [
        {
          "internalType": "address",
          "name": "implementation",
          "type": "address"
        }
      ],
      "name": "ERC1967InvalidImplementation",
      "type": "error"
    },
    {
      "inputs": [],
      "name": "ERC1967NonPayable",
      "type": "error"
    },
    {
      "inputs": [
        {
          "internalType": "address",
          "name": "sender",
          "type": "address"
        },
        {
          "internalType": "uint256",
          "name": "tokenId",
          "type": "uint256"
        },
        {
          "internalType": "address",
          "name": "owner",
          "type": "address"
        }
      ],
      "name": "ERC721IncorrectOwner",
      "type": "error"
    },
    {
      "inputs": [
        {
          "internalType": "address",
          "name": "operator",
          "type": "address"
        },
        {
          "internalType": "uint256",
          "name": "tokenId",
          "type": "uint256"
        }
      ],
      "name": "ERC721InsufficientApproval",
      "type": "error"
    },
    {
      "inputs": [
        {
          "internalType": "address",
          "name": "approver",
          "type": "address"
        }
      ],
      "name": "ERC721InvalidApprover",
      "type": "error"
    },
    {
      "inputs": [
        {
          "internalType": "address",
          "name": "operator",
          "type": "address"
        }
      ],
      "name": "ERC721InvalidOperator",
      "type": "error"
    },
    {
      "inputs": [
        {
          "internalType": "address",
          "name": "owner",
          "type": "address"
        }
      ],
      "name": "ERC721InvalidOwner",
      "type": "error"
    },
    {
      "inputs": [
        {
          "internalType": "address",
          "name": "receiver",
          "type": "address"
        }
      ],
      "name": "ERC721InvalidReceiver",
      "type": "error"
    },
    {
      "inputs": [
        {
          "internalType": "address",
          "name": "sender",
          "type": "address"
        }
      ],
      "name": "ERC721InvalidSender",
      "type": "error"
    },
    {
      "inputs": [
        {
          "internalType": "uint256",
          "name": "tokenId",
          "type": "uint256"
        }
      ],
      "name": "ERC721NonexistentToken",
      "type": "error"
    },
    {
      "inputs": [],
      "name": "FailedCall",
      "type": "error"
    },
    {
      "inputs": [],
      "name": "InvalidInitialization",
      "type": "error"
    },
    {
      "inputs": [],
      "name": "NotInitializing",
      "type": "error"
    },
    {
      "inputs": [
        {
          "internalType": "address",
          "name": "owner",
          "type": "address"
        }
      ],
      "name": "OwnableInvalidOwner",
      "type": "error"
    },
    {
      "inputs": [
        {
          "internalType": "address",
          "name": "account",
          "type": "address"
        }
      ],
      "name": "OwnableUnauthorizedAccount",
      "type": "error"
    },
    {
      "inputs": [],
      "name": "UUPSUnauthorizedCallContext",
      "type": "error"
    },
    {
      "inputs": [
        {
          "internalType": "bytes32",
          "name": "slot",
          "type": "bytes32"
        }
      ],
      "name": "UUPSUnsupportedProxiableUUID",
      "type": "error"
    },
    {
      "anonymous": false,
      "inputs": [
        {
          "indexed": true,
          "internalType": "uint256",
          "name": "tokenId",
          "type": "uint256"
        },
        {
          "indexed": true,
          "internalType": "uint256",
          "name": "agentId",
          "type": "uint256"
        }
      ],
      "name": "AgentRegistered",
      "type": "event"
    },
    {
      "anonymous": false,
      "inputs": [
        {
          "indexed": true,
          "internalType": "address",
          "name": "owner",
          "type": "address"
        },
        {
          "indexed": true,
          "internalType": "address",
          "name": "approved",
          "type": "address"
        },
        {
          "indexed": true,
          "internalType": "uint256",
          "name": "tokenId",
          "type": "uint256"
        }
      ],
      "name": "Approval",
      "type": "event"
    },
    {
      "anonymous": false,
      "inputs": [
        {
          "indexed": true,
          "internalType": "address",
          "name": "owner",
          "type": "address"
        },
        {
          "indexed": true,
          "internalType": "address",
          "name": "operator",
          "type": "address"
        },
        {
          "indexed": false,
          "internalType": "bool",
          "name": "approved",
          "type": "bool"
        }
      ],
      "name": "ApprovalForAll",
      "type": "event"
    },
    {
      "anonymous": false,
      "inputs": [
        {
          "indexed": true,
          "internalType": "uint256",
          "name": "tokenId",
          "type": "uint256"
        },
        {
          "indexed": false,
          "internalType": "uint8",
          "name": "oldLevel",
          "type": "uint8"
        },
        {
          "indexed": false,
          "internalType": "uint8",
          "name": "newLevel",
          "type": "uint8"
        }
      ],
      "name": "CityLevelUp",
      "type": "event"
    },
    {
      "anonymous": false,
      "inputs": [
        {
          "indexed": true,
          "internalType": "uint256",
          "name": "tokenId",
          "type": "uint256"
        },
        {
          "indexed": false,
          "internalType": "address",
          "name": "visitor",
          "type": "address"
        }
      ],
      "name": "CityLiked",
      "type": "event"
    },
    {
      "anonymous": false,
      "inputs": [
        {
          "indexed": true,
          "internalType": "uint256",
          "name": "tokenId",
          "type": "uint256"
        },
        {
          "indexed": false,
          "internalType": "string",
          "name": "twitterHandle",
          "type": "string"
        },
        {
          "indexed": false,
          "internalType": "address",
          "name": "owner",
          "type": "address"
        },
        {
          "indexed": false,
          "internalType": "uint8",
          "name": "level",
          "type": "uint8"
        }
      ],
      "name": "CityMinted",
      "type": "event"
    },
    {
      "anonymous": false,
      "inputs": [
        {
          "indexed": true,
          "internalType": "uint256",
          "name": "tokenId",
          "type": "uint256"
        },
        {
          "indexed": false,
          "internalType": "uint32",
          "name": "followers",
          "type": "uint32"
        },
        {
          "indexed": false,
          "internalType": "uint8",
          "name": "level",
          "type": "uint8"
        }
      ],
      "name": "CityUpdated",
      "type": "event"
    },
    {
      "anonymous": false,
      "inputs": [
        {
          "indexed": false,
          "internalType": "uint64",
          "name": "version",
          "type": "uint64"
        }
      ],
      "name": "Initialized",
      "type": "event"
    },
    {
      "anonymous": false,
      "inputs": [
        {
          "indexed": false,
          "internalType": "address",
          "name": "oldOracle",
          "type": "address"
        },
        {
          "indexed": false,
          "internalType": "address",
          "name": "newOracle",
          "type": "address"
        }
      ],
      "name": "OracleChanged",
      "type": "event"
    },
    {
      "anonymous": false,
      "inputs": [
        {
          "indexed": true,
          "internalType": "address",
          "name": "previousOwner",
          "type": "address"
        },
        {
          "indexed": true,
          "internalType": "address",
          "name": "newOwner",
          "type": "address"
        }
      ],
      "name": "OwnershipTransferred",
      "type": "event"
    },
    {
      "anonymous": false,
      "inputs": [
        {
          "indexed": true,
          "internalType": "address",
          "name": "from",
          "type": "address"
        },
        {
          "indexed": true,
          "internalType": "address",
          "name": "to",
          "type": "address"
        },
        {
          "indexed": true,
          "internalType": "uint256",
          "name": "tokenId",
          "type": "uint256"
        }
      ],
      "name": "Transfer",
      "type": "event"
    },
    {
      "anonymous": false,
      "inputs": [
        {
          "indexed": true,
          "internalType": "address",
          "name": "implementation",
          "type": "address"
        }
      ],
      "name": "Upgraded",
      "type": "event"
    },
    {
      "inputs": [],
      "name": "UPGRADE_INTERFACE_VERSION",
      "outputs": [
        {
          "internalType": "string",
          "name": "",
          "type": "string"
        }
      ],
      "stateMutability": "view",
      "type": "function"
    },
    {
      "inputs": [],
      "name": "agentIdentityRegistry",
      "outputs": [
        {
          "internalType": "address",
          "name": "",
          "type": "address"
        }
      ],
      "stateMutability": "view",
      "type": "function"
    },
    {
      "inputs": [
        {
          "internalType": "address",
          "name": "to",
          "type": "address"
        },
        {
          "internalType": "uint256",
          "name": "tokenId",
          "type": "uint256"
        }
      ],
      "name": "approve",
      "outputs": [],
      "stateMutability": "nonpayable",
      "type": "function"
    },
    {
      "inputs": [
        {
          "internalType": "address",
          "name": "owner",
          "type": "address"
        }
      ],
      "name": "balanceOf",
      "outputs": [
        {
          "internalType": "uint256",
          "name": "",
          "type": "uint256"
        }
      ],
      "stateMutability": "view",
      "type": "function"
    },
    {
      "inputs": [
        {
          "internalType": "uint256",
          "name": "",
          "type": "uint256"
        }
      ],
      "name": "cities",
      "outputs": [
        {
          "internalType": "uint32",
          "name": "followers",
          "type": "uint32"
        },
        {
          "internalType": "uint32",
          "name": "tweetCount",
          "type": "uint32"
        },
        {
          "internalType": "uint32",
          "name": "following",
          "type": "uint32"
        },
        {
          "internalType": "uint32",
          "name": "engagement",
          "type": "uint32"
        },
        {
          "internalType": "uint8",
          "name": "level",
          "type": "uint8"
        },
        {
          "internalType": "uint64",
          "name": "updatedAt",
          "type": "uint64"
        },
        {
          "internalType": "string",
          "name": "ipfsCID",
          "type": "string"
        }
      ],
      "stateMutability": "view",
      "type": "function"
    },
    {
      "inputs": [
        {
          "internalType": "uint256",
          "name": "",
          "type": "uint256"
        }
      ],
      "name": "cityLikes",
      "outputs": [
        {
          "internalType": "uint256",
          "name": "",
          "type": "uint256"
        }
      ],
      "stateMutability": "view",
      "type": "function"
    },
    {
      "inputs": [
        {
          "internalType": "uint256",
          "name": "tokenId",
          "type": "uint256"
        }
      ],
      "name": "getApproved",
      "outputs": [
        {
          "internalType": "address",
          "name": "",
          "type": "address"
        }
      ],
      "stateMutability": "view",
      "type": "function"
    },
    {
      "inputs": [
        {
          "internalType": "uint256",
          "name": "tokenId",
          "type": "uint256"
        }
      ],
      "name": "getHistory",
      "outputs": [
        {
          "components": [
            {
              "internalType": "uint32",
              "name": "followers",
              "type": "uint32"
            },
            {
              "internalType": "uint32",
              "name": "tweetCount",
              "type": "uint32"
            },
            {
              "internalType": "uint32",
              "name": "engagement",
              "type": "uint32"
            },
            {
              "internalType": "uint64",
              "name": "timestamp",
              "type": "uint64"
            }
          ],
          "internalType": "struct TweetCity.Snapshot[]",
          "name": "",
          "type": "tuple[]"
        }
      ],
      "stateMutability": "view",
      "type": "function"
    },
    {
      "inputs": [
        {
          "internalType": "uint256",
          "name": "tokenId",
          "type": "uint256"
        }
      ],
      "name": "getHistoryLength",
      "outputs": [
        {
          "internalType": "uint256",
          "name": "",
          "type": "uint256"
        }
      ],
      "stateMutability": "view",
      "type": "function"
    },
    {
      "inputs": [
        {
          "internalType": "string",
          "name": "",
          "type": "string"
        }
      ],
      "name": "handleToTokenId",
      "outputs": [
        {
          "internalType": "uint256",
          "name": "",
          "type": "uint256"
        }
      ],
      "stateMutability": "view",
      "type": "function"
    },
    {
      "inputs": [
        {
          "internalType": "address",
          "name": "",
          "type": "address"
        },
        {
          "internalType": "uint256",
          "name": "",
          "type": "uint256"
        }
      ],
      "name": "hasLiked",
      "outputs": [
        {
          "internalType": "bool",
          "name": "",
          "type": "bool"
        }
      ],
      "stateMutability": "view",
      "type": "function"
    },
    {
      "inputs": [
        {
          "internalType": "address",
          "name": "_oracle",
          "type": "address"
        }
      ],
      "name": "initialize",
      "outputs": [],
      "stateMutability": "nonpayable",
      "type": "function"
    },
    {
      "inputs": [
        {
          "internalType": "address",
          "name": "owner",
          "type": "address"
        },
        {
          "internalType": "address",
          "name": "operator",
          "type": "address"
        }
      ],
      "name": "isApprovedForAll",
      "outputs": [
        {
          "internalType": "bool",
          "name": "",
          "type": "bool"
        }
      ],
      "stateMutability": "view",
      "type": "function"
    },
    {
      "inputs": [
        {
          "internalType": "uint256",
          "name": "tokenId",
          "type": "uint256"
        }
      ],
      "name": "likeCity",
      "outputs": [],
      "stateMutability": "nonpayable",
      "type": "function"
    },
    {
      "inputs": [
        {
          "internalType": "address",
          "name": "to",
          "type": "address"
        },
        {
          "internalType": "string",
          "name": "twitterHandle",
          "type": "string"
        },
        {
          "internalType": "uint32",
          "name": "followers",
          "type": "uint32"
        },
        {
          "internalType": "uint32",
          "name": "tweetCount",
          "type": "uint32"
        },
        {
          "internalType": "uint32",
          "name": "following",
          "type": "uint32"
        },
        {
          "internalType": "uint32",
          "name": "engagement",
          "type": "uint32"
        },
        {
          "internalType": "string",
          "name": "ipfsCID",
          "type": "string"
        }
      ],
      "name": "mintCity",
      "outputs": [],
      "stateMutability": "nonpayable",
      "type": "function"
    },
    {
      "inputs": [],
      "name": "name",
      "outputs": [
        {
          "internalType": "string",
          "name": "",
          "type": "string"
        }
      ],
      "stateMutability": "view",
      "type": "function"
    },
    {
      "inputs": [],
      "name": "oracle",
      "outputs": [
        {
          "internalType": "address",
          "name": "",
          "type": "address"
        }
      ],
      "stateMutability": "view",
      "type": "function"
    },
    {
      "inputs": [],
      "name": "owner",
      "outputs": [
        {
          "internalType": "address",
          "name": "",
          "type": "address"
        }
      ],
      "stateMutability": "view",
      "type": "function"
    },
    {
      "inputs": [
        {
          "internalType": "uint256",
          "name": "tokenId",
          "type": "uint256"
        }
      ],
      "name": "ownerOf",
      "outputs": [
        {
          "internalType": "address",
          "name": "",
          "type": "address"
        }
      ],
      "stateMutability": "view",
      "type": "function"
    },
    {
      "inputs": [],
      "name": "proxiableUUID",
      "outputs": [
        {
          "internalType": "bytes32",
          "name": "",
          "type": "bytes32"
        }
      ],
      "stateMutability": "view",
      "type": "function"
    },
    {
      "inputs": [],
      "name": "renounceOwnership",
      "outputs": [],
      "stateMutability": "nonpayable",
      "type": "function"
    },
    {
      "inputs": [
        {
          "internalType": "address",
          "name": "from",
          "type": "address"
        },
        {
          "internalType": "address",
          "name": "to",
          "type": "address"
        },
        {
          "internalType": "uint256",
          "name": "tokenId",
          "type": "uint256"
        }
      ],
      "name": "safeTransferFrom",
      "outputs": [],
      "stateMutability": "nonpayable",
      "type": "function"
    },
    {
      "inputs": [
        {
          "internalType": "address",
          "name": "from",
          "type": "address"
        },
        {
          "internalType": "address",
          "name": "to",
          "type": "address"
        },
        {
          "internalType": "uint256",
          "name": "tokenId",
          "type": "uint256"
        },
        {
          "internalType": "bytes",
          "name": "data",
          "type": "bytes"
        }
      ],
      "name": "safeTransferFrom",
      "outputs": [],
      "stateMutability": "nonpayable",
      "type": "function"
    },
    {
      "inputs": [
        {
          "internalType": "address",
          "name": "registry",
          "type": "address"
        }
      ],
      "name": "setAgentIdentityRegistry",
      "outputs": [],
      "stateMutability": "nonpayable",
      "type": "function"
    },
    {
      "inputs": [
        {
          "internalType": "address",
          "name": "operator",
          "type": "address"
        },
        {
          "internalType": "bool",
          "name": "approved",
          "type": "bool"
        }
      ],
      "name": "setApprovalForAll",
      "outputs": [],
      "stateMutability": "nonpayable",
      "type": "function"
    },
    {
      "inputs": [
        {
          "internalType": "address",
          "name": "newOracle",
          "type": "address"
        }
      ],
      "name": "setOracle",
      "outputs": [],
      "stateMutability": "nonpayable",
      "type": "function"
    },
    {
      "inputs": [
        {
          "internalType": "uint256",
          "name": "tokenId",
          "type": "uint256"
        },
        {
          "internalType": "uint256",
          "name": "agentId",
          "type": "uint256"
        }
      ],
      "name": "setTokenAgentId",
      "outputs": [],
      "stateMutability": "nonpayable",
      "type": "function"
    },
    {
      "inputs": [
        {
          "internalType": "bytes4",
          "name": "interfaceId",
          "type": "bytes4"
        }
      ],
      "name": "supportsInterface",
      "outputs": [
        {
          "internalType": "bool",
          "name": "",
          "type": "bool"
        }
      ],
      "stateMutability": "view",
      "type": "function"
    },
    {
      "inputs": [],
      "name": "symbol",
      "outputs": [
        {
          "internalType": "string",
          "name": "",
          "type": "string"
        }
      ],
      "stateMutability": "view",
      "type": "function"
    },
    {
      "inputs": [
        {
          "internalType": "uint256",
          "name": "",
          "type": "uint256"
        }
      ],
      "name": "tokenAgentId",
      "outputs": [
        {
          "internalType": "uint256",
          "name": "",
          "type": "uint256"
        }
      ],
      "stateMutability": "view",
      "type": "function"
    },
    {
      "inputs": [
        {
          "internalType": "uint256",
          "name": "",
          "type": "uint256"
        }
      ],
      "name": "tokenToHandle",
      "outputs": [
        {
          "internalType": "string",
          "name": "",
          "type": "string"
        }
      ],
      "stateMutability": "view",
      "type": "function"
    },
    {
      "inputs": [
        {
          "internalType": "uint256",
          "name": "tokenId",
          "type": "uint256"
        }
      ],
      "name": "tokenURI",
      "outputs": [
        {
          "internalType": "string",
          "name": "",
          "type": "string"
        }
      ],
      "stateMutability": "view",
      "type": "function"
    },
    {
      "inputs": [],
      "name": "totalSupply",
      "outputs": [
        {
          "internalType": "uint256",
          "name": "",
          "type": "uint256"
        }
      ],
      "stateMutability": "view",
      "type": "function"
    },
    {
      "inputs": [
        {
          "internalType": "address",
          "name": "from",
          "type": "address"
        },
        {
          "internalType": "address",
          "name": "to",
          "type": "address"
        },
        {
          "internalType": "uint256",
          "name": "tokenId",
          "type": "uint256"
        }
      ],
      "name": "transferFrom",
      "outputs": [],
      "stateMutability": "nonpayable",
      "type": "function"
    },
    {
      "inputs": [
        {
          "internalType": "address",
          "name": "newOwner",
          "type": "address"
        }
      ],
      "name": "transferOwnership",
      "outputs": [],
      "stateMutability": "nonpayable",
      "type": "function"
    },
    {
      "inputs": [
        {
          "internalType": "uint256",
          "name": "tokenId",
          "type": "uint256"
        },
        {
          "internalType": "uint32",
          "name": "followers",
          "type": "uint32"
        },
        {
          "internalType": "uint32",
          "name": "tweetCount",
          "type": "uint32"
        },
        {
          "internalType": "uint32",
          "name": "following",
          "type": "uint32"
        },
        {
          "internalType": "uint32",
          "name": "engagement",
          "type": "uint32"
        },
        {
          "internalType": "string",
          "name": "ipfsCID",
          "type": "string"
        }
      ],
      "name": "updateCity",
      "outputs": [],
      "stateMutability": "nonpayable",
      "type": "function"
    },
    {
      "inputs": [
        {
          "internalType": "address",
          "name": "newImplementation",
          "type": "address"
        },
        {
          "internalType": "bytes",
          "name": "data",
          "type": "bytes"
        }
      ],
      "name": "upgradeToAndCall",
      "outputs": [],
      "stateMutability": "payable",
      "type": "function"
    }
  ],
  "bytecode": "0x60a06040523060805234801562000014575f80fd5b506200001f62000025565b620000d9565b7ff0c57e16840df040f15088dc2f81fe391c3923bec73e23a9662efc9c229c6a00805468010000000000000000900460ff1615620000765760405163f92ee8a960e01b815260040160405180910390fd5b80546001600160401b0390811614620000d65780546001600160401b0319166001600160401b0390811782556040519081527fc7f505b2f371ae2175ee4913f4499e1f2633a7b5936321eed1cdaeb6115181d29060200160405180910390a15b50565b608051612eb2620001005f395f8181611b7d01528181611ba60152611ce50152612eb25ff3fe608060405260043610610212575f3560e01c80637adbf9731161011e578063b38fe06b116100a8578063daf141781161006d578063daf1417814610684578063de5c62a6146106a3578063e985e9c5146106c2578063f2fde38b146106e1578063f481079b14610700575f80fd5b8063b38fe06b146105d0578063b88d4fde146105fb578063c4d66de81461061a578063c8691b2a14610639578063c87b56dd14610665575f80fd5b806390a66bc0116100ee57806390a66bc01461052357806395d89b4114610542578063a22cb46514610556578063a5a63e0114610575578063ad3cb1cc146105a0575f80fd5b80637adbf9731461047e5780637dc0d1d01461049d5780638da5cb5b146104bc5780638df459c9146104f8575f80fd5b8063481243c01161019f5780636352211e1161016f5780636352211e146103db5780636a51b918146103fa57806370a082311461042c578063715018a61461044b5780637a48048d1461045f575f80fd5b8063481243c01461035c5780634c6668a31461037b5780634f1ef286146103b457806352d1902d146103c7575f80fd5b8063144bcfb4116101e5578063144bcfb4146102c357806314ea997f146102e257806318160ddd1461030157806323b872dd1461031e57806342842e0e1461033d575f80fd5b806301ffc9a71461021657806306fdde031461024a578063081812fc1461026b578063095ea7b3146102a2575b5f80fd5b348015610221575f80fd5b506102356102303660046124e7565b610737565b60405190151581526020015b60405180910390f35b348015610255575f80fd5b5061025e610788565b604051610241919061254c565b348015610276575f80fd5b5061028a61028536600461255e565b610829565b6040516001600160a01b039091168152602001610241565b3480156102ad575f80fd5b506102c16102bc366004612590565b61083d565b005b3480156102ce575f80fd5b506102c16102dd3660046125b8565b61084c565b3480156102ed575f80fd5b506102c16102fc36600461255e565b610876565b34801561030c575f80fd5b505f545b604051908152602001610241565b348015610329575f80fd5b506102c16103383660046125d1565b6109ef565b348015610348575f80fd5b506102c16103573660046125d1565b610a78565b348015610367575f80fd5b5061025e61037636600461255e565b610a97565b348015610386575f80fd5b50610235610395366004612590565b600660209081525f928352604080842090915290825290205460ff1681565b6102c16103c23660046126ae565b610b2e565b3480156103d2575f80fd5b50610310610b49565b3480156103e6575f80fd5b5061028a6103f536600461255e565b610b64565b348015610405575f80fd5b5061041961041436600461255e565b610b6e565b60405161024197969594939291906126f8565b348015610437575f80fd5b506103106104463660046125b8565b610c56565b348015610456575f80fd5b506102c1610cae565b34801561046a575f80fd5b506102c16104793660046127ac565b610cc1565b348015610489575f80fd5b506102c16104983660046125b8565b611030565b3480156104a8575f80fd5b5060075461028a906001600160a01b031681565b3480156104c7575f80fd5b507f9016d09d72d40fdae2fd8ceac6b6234c7706214fd39c1cd1e609a0528c199300546001600160a01b031661028a565b348015610503575f80fd5b5061031061051236600461255e565b60096020525f908152604090205481565b34801561052e575f80fd5b506102c161053d366004612835565b6110f1565b34801561054d575f80fd5b5061025e611544565b348015610561575f80fd5b506102c16105703660046128f4565b611582565b348015610580575f80fd5b5061031061058f36600461255e565b60056020525f908152604090205481565b3480156105ab575f80fd5b5061025e604051806040016040528060058152602001640352e302e360dc1b81525081565b3480156105db575f80fd5b506103106105ea36600461255e565b5f9081526002602052604090205490565b348015610606575f80fd5b506102c161061536600461292d565b61158d565b348015610625575f80fd5b506102c16106343660046125b8565b6115a5565b348015610644575f80fd5b5061065861065336600461255e565b611755565b6040516102419190612990565b348015610670575f80fd5b5061025e61067f36600461255e565b611824565b34801561068f575f80fd5b506102c161069e366004612a07565b611890565b3480156106ae575f80fd5b5060085461028a906001600160a01b031681565b3480156106cd575f80fd5b506102356106dc366004612a27565b6118d6565b3480156106ec575f80fd5b506102c16106fb3660046125b8565b611922565b34801561070b575f80fd5b5061031061071a366004612a58565b805160208183018101805160038252928201919093012091525481565b5f6001600160e01b031982166380ac58cd60e01b148061076757506001600160e01b03198216635b5e139f60e01b145b8061078257506301ffc9a760e01b6001600160e01b03198316145b92915050565b5f80516020612e3d83398151915280546060919081906107a790612a9c565b80601f01602080910402602001604051908101604052809291908181526020018280546107d390612a9c565b801561081e5780601f106107f55761010080835404028352916020019161081e565b820191905f5260205f20905b81548152906001019060200180831161080157829003601f168201915b505050505091505090565b5f6108338261195f565b5061078282611996565b6108488282336119cf565b5050565b6108546119dc565b600880546001600160a01b0319166001600160a01b0392909216919091179055565b5f61088082611a37565b6001600160a01b0316036108af5760405162461bcd60e51b81526004016108a690612ad4565b60405180910390fd5b5f6108b933610c56565b116109115760405162461bcd60e51b815260206004820152602260248201527f5477656574436974793a206d757374206f776e2061206369747920746f206c696044820152616b6560f01b60648201526084016108a6565b335f90815260066020908152604080832084845290915290205460ff161561097b5760405162461bcd60e51b815260206004820152601860248201527f5477656574436974793a20616c7265616479206c696b6564000000000000000060448201526064016108a6565b335f9081526006602090815260408083208484528252808320805460ff19166001179055600590915281208054916109b283612b0b565b909155505060405133815281907f13310e70a1fbe9cad57d034d5a568ee2c6a66aefcb1a2c776f3a84646abb17009060200160405180910390a250565b6001600160a01b038216610a1857604051633250574960e11b81525f60048201526024016108a6565b5f610a24838333611a70565b9050836001600160a01b0316816001600160a01b031614610a72576040516364283d7b60e01b81526001600160a01b03808616600483015260248201849052821660448201526064016108a6565b50505050565b610a9283838360405180602001604052805f81525061158d565b505050565b60046020525f908152604090208054610aaf90612a9c565b80601f0160208091040260200160405190810160405280929190818152602001828054610adb90612a9c565b8015610b265780601f10610afd57610100808354040283529160200191610b26565b820191905f5260205f20905b815481529060010190602001808311610b0957829003601f168201915b505050505081565b610b36611b72565b610b3f82611c16565b6108488282611c1e565b5f610b52611cda565b505f80516020612e5d83398151915290565b5f6107828261195f565b600160208190525f91825260409091208054918101805463ffffffff808516946401000000008104821694600160401b8204831694600160601b830490931693600160801b830460ff1693600160881b9093046001600160401b03169290610bd590612a9c565b80601f0160208091040260200160405190810160405280929190818152602001828054610c0190612a9c565b8015610c4c5780601f10610c2357610100808354040283529160200191610c4c565b820191905f5260205f20905b815481529060010190602001808311610c2f57829003601f168201915b5050505050905087565b5f5f80516020612e3d8339815191526001600160a01b038316610c8e576040516322718ad960e21b81525f60048201526024016108a6565b6001600160a01b039092165f908152600390920160205250604090205490565b610cb66119dc565b610cbf5f611d23565b565b6007546001600160a01b03163314610d1b5760405162461bcd60e51b815260206004820152601f60248201527f5477656574436974793a2063616c6c6572206973206e6f74206f7261636c650060448201526064016108a6565b5f610d2588611a37565b6001600160a01b031603610d4b5760405162461bcd60e51b81526004016108a690612ad4565b5f87815260016020526040812054600160801b900460ff1690610d6d88611d93565b90508760015f8b81526020019081526020015f205f015f6101000a81548163ffffffff021916908363ffffffff1602179055508660015f8b81526020019081526020015f205f0160046101000a81548163ffffffff021916908363ffffffff1602179055508560015f8b81526020019081526020015f205f0160086101000a81548163ffffffff021916908363ffffffff1602179055508460015f8b81526020019081526020015f205f01600c6101000a81548163ffffffff021916908363ffffffff1602179055508060015f8b81526020019081526020015f205f0160106101000a81548160ff021916908360ff1602179055504260015f8b81526020019081526020015f205f0160116101000a8154816001600160401b0302191690836001600160401b031602179055505f848490501115610ec3575f89815260016020819052604090912001610ec1848683612b73565b505b5f898152600260209081526040808320815160808101835263ffffffff808e1682528c81168286019081528b82168386019081526001600160401b03428116606086019081528654600181018855968a52979098209351939094018054915194519651909716600160601b0267ffffffffffffffff60601b19968316600160401b02969096166bffffffffffffffffffffffff60401b199483166401000000000267ffffffffffffffff199092169390921692909217919091179190911617919091179091555189907fc6a8f7ba7552cafde601247f6a6d06d48b8abb1bcd16eac3b09e80213a174ab090610fcf908b90859063ffffffff92909216825260ff16602082015260400190565b60405180910390a28160ff168160ff161115611025576040805160ff8085168252831660208201528a917fe7a6ac53e7d2c3913c9642819be18f4b704cae25044dbfd99b9910742a5d8124910160405180910390a25b505050505050505050565b6110386119dc565b6001600160a01b0381166110885760405162461bcd60e51b81526020600482015260176024820152765477656574436974793a207a65726f206164647265737360481b60448201526064016108a6565b600754604080516001600160a01b03928316815291831660208301527f05cd89403c6bdeac21c2ff33de395121a31fa1bc2bf3adf4825f1f86e79969dd910160405180910390a1600780546001600160a01b0319166001600160a01b0392909216919091179055565b6007546001600160a01b0316331461114b5760405162461bcd60e51b815260206004820152601f60248201527f5477656574436974793a2063616c6c6572206973206e6f74206f7261636c650060448201526064016108a6565b866111985760405162461bcd60e51b815260206004820152601760248201527f5477656574436974793a20656d7074792068616e646c6500000000000000000060448201526064016108a6565b600388886040516111aa929190612c2c565b9081526020016040518091039020545f146112075760405162461bcd60e51b815260206004820181905260248201527f5477656574436974793a2068616e646c6520616c7265616479206d696e74656460448201526064016108a6565b6001600160a01b0389166112575760405162461bcd60e51b81526020600482015260176024820152765477656574436974793a207a65726f206164647265737360481b60448201526064016108a6565b5f805f815461126590612b0b565b918290555090505f61127688611d93565b90506040518060e001604052808963ffffffff1681526020018863ffffffff1681526020018763ffffffff1681526020018663ffffffff1681526020018260ff168152602001426001600160401b0316815260200185858080601f0160208091040260200160405190810160405280939291908181526020018383808284375f920182905250939094525050848152600160208181526040928390208551815492870151948701516060880151608089015160a08a01516001600160401b0316600160881b0267ffffffffffffffff60881b1960ff909216600160801b029190911668ffffffffffffffffff60801b1963ffffffff938416600160601b0263ffffffff60601b19958516600160401b02959095166fffffffffffffffff0000000000000000199a85166401000000000267ffffffffffffffff19909916949096169390931796909617979097169290921717169190911792909217825560c08401519192508201906113e89082612c3b565b5050505f828152600260209081526040808320815160808101835263ffffffff808e1682528c81168286019081528b82168386019081526001600160401b03428116606086019081528654600181018855968a52979098209351939094018054915194519651909716600160601b0267ffffffffffffffff60601b19968316600160401b02969096166bffffffffffffffffffffffff60401b199483166401000000000267ffffffffffffffff199092169390921692909217919091179190911617919091179091555182906003906114c4908d908d90612c2c565b9081526040805160209281900383019020929092555f8481526004909152206114ee8a8c83612b73565b506114f98b83611df8565b817fb6dc3ddef6c175246a12ce143c1a88108d40f3b5858d568a2a57b6fe890e6c258b8b8e8560405161152f9493929190612cf6565b60405180910390a25050505050505050505050565b7f80bb2b638cc20bc4d0a60d66940f3ab4a00c1d7b313497ca82fb0b4ab007930180546060915f80516020612e3d833981519152916107a790612a9c565b610848338383611e11565b6115988484846109ef565b610a723385858585611ee9565b5f6115ae61200f565b805490915060ff600160401b82041615906001600160401b03165f811580156115d45750825b90505f826001600160401b031660011480156115ef5750303b155b9050811580156115fd575080155b1561161b5760405163f92ee8a960e01b815260040160405180910390fd5b845467ffffffffffffffff19166001178555831561164557845460ff60401b1916600160401b1785555b61168d6040518060400160405280600981526020016854776565744369747960b81b81525060405180604001604052806005815260200164544349545960d81b815250612037565b61169633612049565b6001600160a01b0386166116ec5760405162461bcd60e51b815260206004820152601e60248201527f5477656574436974793a207a65726f206f7261636c652061646472657373000060448201526064016108a6565b600780546001600160a01b0319166001600160a01b038816179055831561174d57845460ff60401b19168555604051600181527fc7f505b2f371ae2175ee4913f4499e1f2633a7b5936321eed1cdaeb6115181d29060200160405180910390a15b505050505050565b60605f61176183611a37565b6001600160a01b0316036117875760405162461bcd60e51b81526004016108a690612ad4565b5f82815260026020908152604080832080548251818502810185019093528083529193909284015b82821015611819575f848152602090819020604080516080810182529185015463ffffffff80821684526401000000008204811684860152600160401b82041691830191909152600160601b90046001600160401b031660608201528252600190920191016117af565b505050509050919050565b60605f61183083611a37565b6001600160a01b0316036118565760405162461bcd60e51b81526004016108a690612ad4565b60015f8381526020019081526020015f2060010160405160200161187a9190612d41565b6040516020818303038152906040529050919050565b6118986119dc565b5f8281526009602052604080822083905551829184917ff77f100d8239998ee21717ed1e13c281aebc791199d4a49e48b6d478d8ecd9559190a35050565b6001600160a01b039182165f9081527f80bb2b638cc20bc4d0a60d66940f3ab4a00c1d7b313497ca82fb0b4ab00793056020908152604080832093909416825291909152205460ff1690565b61192a6119dc565b6001600160a01b03811661195357604051631e4fbdf760e01b81525f60048201526024016108a6565b61195c81611d23565b50565b5f8061196a83611a37565b90506001600160a01b03811661078257604051637e27328960e01b8152600481018490526024016108a6565b5f9081527f80bb2b638cc20bc4d0a60d66940f3ab4a00c1d7b313497ca82fb0b4ab007930460205260409020546001600160a01b031690565b610a92838383600161205a565b33611a0e7f9016d09d72d40fdae2fd8ceac6b6234c7706214fd39c1cd1e609a0528c199300546001600160a01b031690565b6001600160a01b031614610cbf5760405163118cdaa760e01b81523360048201526024016108a6565b5f9081527f80bb2b638cc20bc4d0a60d66940f3ab4a00c1d7b313497ca82fb0b4ab007930260205260409020546001600160a01b031690565b5f5f80516020612e3d83398151915281611a8985611a37565b90506001600160a01b03841615611aa557611aa581858761216d565b6001600160a01b03811615611ae157611ac05f865f8061205a565b6001600160a01b0381165f908152600383016020526040902080545f190190555b6001600160a01b03861615611b11576001600160a01b0386165f9081526003830160205260409020805460010190555b5f85815260028301602052604080822080546001600160a01b0319166001600160a01b038a811691821790925591518893918516917fddf252ad1be2c89b69c2b068fc378daa952ba7f163c4a11628f55a4df523b3ef91a495945050505050565b306001600160a01b037f0000000000000000000000000000000000000000000000000000000000000000161480611bf857507f00000000000000000000000000000000000000000000000000000000000000006001600160a01b0316611bec5f80516020612e5d833981519152546001600160a01b031690565b6001600160a01b031614155b15610cbf5760405163703e46dd60e11b815260040160405180910390fd5b61195c6119dc565b816001600160a01b03166352d1902d6040518163ffffffff1660e01b8152600401602060405180830381865afa925050508015611c78575060408051601f3d908101601f19168201909252611c7591810190612dce565b60015b611ca057604051634c9c8ce360e01b81526001600160a01b03831660048201526024016108a6565b5f80516020612e5d8339815191528114611cd057604051632a87526960e21b8152600481018290526024016108a6565b610a9283836121d1565b306001600160a01b037f00000000000000000000000000000000000000000000000000000000000000001614610cbf5760405163703e46dd60e11b815260040160405180910390fd5b7f9016d09d72d40fdae2fd8ceac6b6234c7706214fd39c1cd1e609a0528c19930080546001600160a01b031981166001600160a01b03848116918217845560405192169182907f8be0079c531659141344cd1fd0a4f28419497f9722a3daafe3b4186f6b6457e0905f90a3505050565b5f620186a08263ffffffff1610611dac57506005919050565b6127108263ffffffff1610611dc357506004919050565b6103e88263ffffffff1610611dda57506003919050565b60648263ffffffff1610611df057506002919050565b506001919050565b610848828260405180602001604052805f815250612226565b5f80516020612e3d8339815191526001600160a01b038416611e485760405163a9fbf51f60e01b81525f60048201526024016108a6565b6001600160a01b038316611e7a57604051630b61174360e31b81526001600160a01b03841660048201526024016108a6565b6001600160a01b038481165f818152600584016020908152604080832094881680845294825291829020805460ff191687151590811790915591519182527f17307eab39ab6107e8899845ad3d59bd9653f200f220920489ca2b5937696c31910160405180910390a350505050565b6001600160a01b0383163b1561200857604051630a85bd0160e11b81526001600160a01b0384169063150b7a0290611f2b908890889087908790600401612de5565b6020604051808303815f875af1925050508015611f65575060408051601f3d908101601f19168201909252611f6291810190612e21565b60015b611fcc573d808015611f92576040519150601f19603f3d011682016040523d82523d5f602084013e611f97565b606091505b5080515f03611fc457604051633250574960e11b81526001600160a01b03851660048201526024016108a6565b805160208201fd5b6001600160e01b03198116630a85bd0160e11b1461174d57604051633250574960e11b81526001600160a01b03851660048201526024016108a6565b5050505050565b5f807ff0c57e16840df040f15088dc2f81fe391c3923bec73e23a9662efc9c229c6a00610782565b61203f61223d565b6108488282612262565b61205161223d565b61195c81612292565b5f80516020612e3d833981519152818061207c57506001600160a01b03831615155b1561213d575f61208b8561195f565b90506001600160a01b038416158015906120b75750836001600160a01b0316816001600160a01b031614155b80156120ca57506120c881856118d6565b155b156120f35760405163a9fbf51f60e01b81526001600160a01b03851660048201526024016108a6565b821561213b5784866001600160a01b0316826001600160a01b03167f8c5be1e5ebec7d5bd14f71427d1e84f3dd0314c0f7b2291e5b200ac8c7c3b92560405160405180910390a45b505b5f93845260040160205250506040902080546001600160a01b0319166001600160a01b0392909216919091179055565b61217883838361229a565b610a92576001600160a01b0383166121a657604051637e27328960e01b8152600481018290526024016108a6565b60405163177e802f60e01b81526001600160a01b0383166004820152602481018290526044016108a6565b6121da826122ff565b6040516001600160a01b038316907fbc7cd75a20ee27fd9adebab32041f755214dbc6bffa90cc0225b39da2e5c2d3b905f90a280511561221e57610a928282612362565b610848612402565b6122308383612421565b610a92335f858585611ee9565b612245612482565b610cbf57604051631afcd79f60e31b815260040160405180910390fd5b61226a61223d565b5f80516020612e3d833981519152806122838482612c3b565b5060018101610a728382612c3b565b61192a61223d565b5f6001600160a01b038316158015906122f75750826001600160a01b0316846001600160a01b031614806122d357506122d384846118d6565b806122f75750826001600160a01b03166122ec83611996565b6001600160a01b0316145b949350505050565b806001600160a01b03163b5f0361233457604051634c9c8ce360e01b81526001600160a01b03821660048201526024016108a6565b5f80516020612e5d83398151915280546001600160a01b0319166001600160a01b0392909216919091179055565b60605f61236f848461249b565b905080801561239057505f3d118061239057505f846001600160a01b03163b115b156123a55761239d6124ae565b915050610782565b80156123cf57604051639996b31560e01b81526001600160a01b03851660048201526024016108a6565b3d156123e2576123dd6124c7565b6123fb565b60405163d6bda27560e01b815260040160405180910390fd5b5092915050565b3415610cbf5760405163b398979f60e01b815260040160405180910390fd5b6001600160a01b03821661244a57604051633250574960e11b81525f60048201526024016108a6565b5f61245683835f611a70565b90506001600160a01b03811615610a92576040516339e3563760e11b81525f60048201526024016108a6565b5f61248b61200f565b54600160401b900460ff16919050565b5f805f835160208501865af49392505050565b6040513d81523d5f602083013e3d602001810160405290565b6040513d5f823e3d81fd5b6001600160e01b03198116811461195c575f80fd5b5f602082840312156124f7575f80fd5b8135612502816124d2565b9392505050565b5f81518084525f5b8181101561252d57602081850181015186830182015201612511565b505f602082860101526020601f19601f83011685010191505092915050565b602081525f6125026020830184612509565b5f6020828403121561256e575f80fd5b5035919050565b80356001600160a01b038116811461258b575f80fd5b919050565b5f80604083850312156125a1575f80fd5b6125aa83612575565b946020939093013593505050565b5f602082840312156125c8575f80fd5b61250282612575565b5f805f606084860312156125e3575f80fd5b6125ec84612575565b92506125fa60208501612575565b9150604084013590509250925092565b634e487b7160e01b5f52604160045260245ffd5b5f6001600160401b03808411156126375761263761260a565b604051601f8501601f19908116603f0116810190828211818310171561265f5761265f61260a565b81604052809350858152868686011115612677575f80fd5b858560208301375f602087830101525050509392505050565b5f82601f83011261269f575f80fd5b6125028383356020850161261e565b5f80604083850312156126bf575f80fd5b6126c883612575565b915060208301356001600160401b038111156126e2575f80fd5b6126ee85828601612690565b9150509250929050565b5f63ffffffff808a1683528089166020840152808816604084015280871660608401525060ff851660808301526001600160401b03841660a083015260e060c083015261274860e0830184612509565b9998505050505050505050565b803563ffffffff8116811461258b575f80fd5b5f8083601f840112612778575f80fd5b5081356001600160401b0381111561278e575f80fd5b6020830191508360208285010111156127a5575f80fd5b9250929050565b5f805f805f805f60c0888a0312156127c2575f80fd5b873596506127d260208901612755565b95506127e060408901612755565b94506127ee60608901612755565b93506127fc60808901612755565b925060a08801356001600160401b03811115612816575f80fd5b6128228a828b01612768565b989b979a50959850939692959293505050565b5f805f805f805f805f60e08a8c03121561284d575f80fd5b6128568a612575565b985060208a01356001600160401b0380821115612871575f80fd5b61287d8d838e01612768565b909a50985088915061289160408d01612755565b975061289f60608d01612755565b96506128ad60808d01612755565b95506128bb60a08d01612755565b945060c08c01359150808211156128d0575f80fd5b506128dd8c828d01612768565b915080935050809150509295985092959850929598565b5f8060408385031215612905575f80fd5b61290e83612575565b915060208301358015158114612922575f80fd5b809150509250929050565b5f805f8060808587031215612940575f80fd5b61294985612575565b935061295760208601612575565b92506040850135915060608501356001600160401b03811115612978575f80fd5b61298487828801612690565b91505092959194509250565b602080825282518282018190525f919060409081850190868401855b828110156129fa578151805163ffffffff9081168652878201518116888701528682015116868601526060908101516001600160401b031690850152608090930192908501906001016129ac565b5091979650505050505050565b5f8060408385031215612a18575f80fd5b50508035926020909101359150565b5f8060408385031215612a38575f80fd5b612a4183612575565b9150612a4f60208401612575565b90509250929050565b5f60208284031215612a68575f80fd5b81356001600160401b03811115612a7d575f80fd5b8201601f81018413612a8d575f80fd5b6122f78482356020840161261e565b600181811c90821680612ab057607f821691505b602082108103612ace57634e487b7160e01b5f52602260045260245ffd5b50919050565b6020808252601f908201527f5477656574436974793a20746f6b656e20646f6573206e6f7420657869737400604082015260600190565b5f60018201612b2857634e487b7160e01b5f52601160045260245ffd5b5060010190565b601f821115610a9257805f5260205f20601f840160051c81016020851015612b545750805b601f840160051c820191505b81811015612008575f8155600101612b60565b6001600160401b03831115612b8a57612b8a61260a565b612b9e83612b988354612a9c565b83612b2f565b5f601f841160018114612bcf575f8515612bb85750838201355b5f19600387901b1c1916600186901b178355612008565b5f83815260208120601f198716915b82811015612bfe5786850135825560209485019460019092019101612bde565b5086821015612c1a575f1960f88860031b161c19848701351681555b505060018560011b0183555050505050565b818382375f9101908152919050565b81516001600160401b03811115612c5457612c5461260a565b612c6881612c628454612a9c565b84612b2f565b602080601f831160018114612c9b575f8415612c845750858301515b5f19600386901b1c1916600185901b17855561174d565b5f85815260208120601f198616915b82811015612cc957888601518255948401946001909101908401612caa565b5085821015612ce657878501515f19600388901b60f8161c191681555b5050505050600190811b01905550565b60608152836060820152838560808301375f60808583018101919091526001600160a01b0393909316602082015260ff919091166040820152601f909201601f191690910101919050565b66697066733a2f2f60c81b81525f60075f8454612d5d81612a9c565b60018281168015612d755760018114612d9057612dc1565b60ff1984166007890152600783151584028901019450612dc1565b885f526020805f205f5b85811015612db55781548b82018a0152908401908201612d9a565b50505060078389010194505b5092979650505050505050565b5f60208284031215612dde575f80fd5b5051919050565b6001600160a01b03858116825284166020820152604081018390526080606082018190525f90612e1790830184612509565b9695505050505050565b5f60208284031215612e31575f80fd5b8151612502816124d256fe80bb2b638cc20bc4d0a60d66940f3ab4a00c1d7b313497ca82fb0b4ab0079300360894a13ba1a3210667c828492db98dca3e2076cc3735a920a3ca505d382bbca26469706673582212207b94450b70cffa88a56025afb9a5a8b75f730088d372850952e7f9d8a5b5857164736f6c63430008180033",
  "linkReferences": {},
  "deployedLinkReferences": {}
}